{
  "contractName": "Hello",
  "abi": [
    {
      "payable": true,
      "stateMutability": "payable",
      "type": "fallback"
    },
    {
      "constant": false,
      "inputs": [
        {
          "internalType": "string",
          "name": "prop1",
          "type": "string"
        },
        {
          "internalType": "string",
          "name": "prop2",
          "type": "string"
        },
        {
          "internalType": "uint256",
          "name": "duration",
          "type": "uint256"
        }
      ],
      "name": "createSubmission",
      "outputs": [],
      "payable": true,
      "stateMutability": "payable",
      "type": "function"
    },
    {
      "constant": false,
      "inputs": [],
      "name": "getPropNum",
      "outputs": [
        {
          "internalType": "contract Submission",
          "name": "",
          "type": "address"
        },
        {
          "internalType": "uint8",
          "name": "",
          "type": "uint8"
        }
      ],
      "payable": false,
      "stateMutability": "nonpayable",
      "type": "function"
    }
  ],
  "bytecode": "0x608060405234801561001057600080fd5b50612295806100206000396000f3fe6080604052600436106100295760003560e01c8063cf2fa6ce1461002b578063f987e5de14610187575b005b6101856004803603606081101561004157600080fd5b810190808035906020019064010000000081111561005e57600080fd5b82018360208201111561007057600080fd5b8035906020019184600183028401116401000000008311171561009257600080fd5b91908080601f016020809104026020016040519081016040528093929190818152602001838380828437600081840152601f19601f820116905080830192505050505050509192919290803590602001906401000000008111156100f557600080fd5b82018360208201111561010757600080fd5b8035906020019184600183028401116401000000008311171561012957600080fd5b91908080601f016020809104026020016040519081016040528093929190818152602001838380828437600081840152601f19601f820116905080830192505050505050509192919290803590602001909291905050506101eb565b005b34801561019357600080fd5b5061019c61046d565b604051808373ffffffffffffffffffffffffffffffffffffffff1673ffffffffffffffffffffffffffffffffffffffff1681526020018260ff1660ff1681526020019250505060405180910390f35b6101f361064d565b66470de4df8200003411610253576040517f08c379a00000000000000000000000000000000000000000000000000000000081526004018080602001828103825260258152602001806200223c6025913960400191505060405180910390fd5b6000348484338560405161026690610930565b8080602001806020018573ffffffffffffffffffffffffffffffffffffffff1673ffffffffffffffffffffffffffffffffffffffff168152602001848152602001838103835287818151815260200191508051906020019080838360005b838110156102df5780820151818401526020810190506102c4565b50505050905090810190601f16801561030c5780820380516001836020036101000a031916815260200191505b50838103825286818151815260200191508051906020019080838360005b8381101561034557808201518184015260208101905061032a565b50505050905090810190601f1680156103725780820380516001836020036101000a031916815260200191505b5096505050505050506040518091039082f080158015610396573d6000803e3d6000fd5b509050905060008190806001815401808255809150509060018203906000526020600020016000909192909190916101000a81548173ffffffffffffffffffffffffffffffffffffffff021916908373ffffffffffffffffffffffffffffffffffffffff160217905550508073ffffffffffffffffffffffffffffffffffffffff163460405180600001905060006040518083038185875af1925050503d806000811461045f576040519150601f19603f3d011682016040523d82523d6000602084013e610464565b606091505b50505050505050565b60008061047861064d565b60008090505b6000805490508110156105da57600080828154811061049957fe5b9060005260206000200160009054906101000a900473ffffffffffffffffffffffffffffffffffffffff1673ffffffffffffffffffffffffffffffffffffffff1663bc9cdc3a336040518263ffffffff1660e01b8152600401808273ffffffffffffffffffffffffffffffffffffffff1673ffffffffffffffffffffffffffffffffffffffff16815260200191505060206040518083038186803b15801561054057600080fd5b505afa158015610554573d6000803e3d6000fd5b505050506040513d602081101561056a57600080fd5b8101908080519060200190929190505050905060008160ff16146105cc576000828154811061059557fe5b9060005260206000200160009054906101000a900473ffffffffffffffffffffffffffffffffffffffff1681935093505050610649565b50808060010191505061047e565b506040517f08c379a000000000000000000000000000000000000000000000000000000000815260040180806020018281038252601c8152602001807f4e6f2076616c69642070726f706f736974696f6e206578697374732e0000000081525060200191505060405180910390fd5b9091565b60008090505b60008054905081101561092d57600080828154811061066e57fe5b9060005260206000200160009054906101000a900473ffffffffffffffffffffffffffffffffffffffff16905060008173ffffffffffffffffffffffffffffffffffffffff1663627749e66040518163ffffffff1660e01b815260040160206040518083038186803b1580156106e357600080fd5b505afa1580156106f7573d6000803e3d6000fd5b505050506040513d602081101561070d57600080fd5b8101908080519060200190929190505050905042603c82021061091e578173ffffffffffffffffffffffffffffffffffffffff1663ffc6ff1e6040518163ffffffff1660e01b8152600401600060405180830381600087803b15801561077257600080fd5b505af1158015610786573d6000803e3d6000fd5b5050505060016000848154811061079957fe5b9060005260206000200160009054906101000a900473ffffffffffffffffffffffffffffffffffffffff1690806001815401808255809150509060018203906000526020600020016000909192909190916101000a81548173ffffffffffffffffffffffffffffffffffffffff021916908373ffffffffffffffffffffffffffffffffffffffff1602179055505060006001600080549050038154811061083c57fe5b9060005260206000200160009054906101000a900473ffffffffffffffffffffffffffffffffffffffff166000848154811061087457fe5b9060005260206000200160006101000a81548173ffffffffffffffffffffffffffffffffffffffff021916908373ffffffffffffffffffffffffffffffffffffffff1602179055506000600160008054905003815481106108d157fe5b9060005260206000200160006101000a81549073ffffffffffffffffffffffffffffffffffffffff02191690556000805480919060019003610913919061093e565b508280600190039350505b82806001019350505050610653565b50565b6118ac806200099083390190565b81548183558181111561096557818360005260206000209182019101610964919061096a565b5b505050565b61098c91905b80821115610988576000816000905550600101610970565b5090565b9056fe6080604052604051620018ac380380620018ac833981810160405260808110156200002957600080fd5b81019080805160405193929190846401000000008211156200004a57600080fd5b838201915060208201858111156200006157600080fd5b82518660018202830111640100000000821117156200007f57600080fd5b8083526020830192505050908051906020019080838360005b83811015620000b557808201518184015260208101905062000098565b50505050905090810190601f168015620000e35780820380516001836020036101000a031916815260200191505b50604052602001805160405193929190846401000000008211156200010757600080fd5b838201915060208201858111156200011e57600080fd5b82518660018202830111640100000000821117156200013c57600080fd5b8083526020830192505050908051906020019080838360005b838110156200017257808201518184015260208101905062000155565b50505050905090810190601f168015620001a05780820380516001836020036101000a031916815260200191505b5060405260200180519060200190929190805190602001909291905050506001600260000160006101000a81548160ff021916908360ff1602179055508360026001019080519060200190620001f8929190620002ee565b5060006002600401819055506002600760000160006101000a81548160ff021916908360ff16021790555082600760010190805190602001906200023e929190620002ee565b506000600760040181905550816000806101000a81548173ffffffffffffffffffffffffffffffffffffffff021916908373ffffffffffffffffffffffffffffffffffffffff16021790555033600160006101000a81548173ffffffffffffffffffffffffffffffffffffffff021916908373ffffffffffffffffffffffffffffffffffffffff160217905550804201600c819055506611c37937e080003403600d81905550505050506200039d565b828054600181600116156101000203166002900490600052602060002090601f016020900481019282601f106200033157805160ff191683800117855562000362565b8280016001018555821562000362579182015b828111156200036157825182559160200191906001019062000344565b5b50905062000371919062000375565b5090565b6200039a91905b80821115620003965760008160009055506001016200037c565b5090565b90565b6114ff80620003ad6000396000f3fe60806040526004361061004a5760003560e01c80632808241e1461004f578063627749e61461008c5780638d9dbc14146100b7578063bc9cdc3a1461016e578063ffc6ff1e146101d9575b600080fd5b61008a6004803603604081101561006557600080fd5b81019080803560ff1690602001909291908035151590602001909291905050506101f0565b005b34801561009857600080fd5b506100a1610590565b6040518082815260200191505060405180910390f35b3480156100c357600080fd5b506100f3600480360360208110156100da57600080fd5b81019080803560ff169060200190929190505050610596565b6040518080602001828103825283818151815260200191508051906020019080838360005b83811015610133578082015181840152602081019050610118565b50505050905090810190601f1680156101605780820380516001836020036101000a031916815260200191505b509250505060405180910390f35b34801561017a57600080fd5b506101bd6004803603602081101561019157600080fd5b81019080803573ffffffffffffffffffffffffffffffffffffffff1690602001909291905050506107ba565b604051808260ff1660ff16815260200191505060405180910390f35b3480156101e557600080fd5b506101ee6108a7565b005b600260000160009054906101000a900460ff1660ff168260ff16148061022d5750600760000160009054906101000a900460ff1660ff168260ff16145b610282576040517f08c379a00000000000000000000000000000000000000000000000000000000081526004018080602001828103825260268152602001806114a56026913960400191505060405180910390fd5b6611c37937e0800034116102fe576040517f08c379a000000000000000000000000000000000000000000000000000000000815260040180806020018281038252601a8152602001807f596f75206e65656420746f2070726f76696465206120626f6e6400000000000081525060200191505060405180910390fd5b600260000160009054906101000a900460ff1660ff168260ff1614156104465760405180604001604052808215158152602001600115158152506002800160003373ffffffffffffffffffffffffffffffffffffffff1673ffffffffffffffffffffffffffffffffffffffff16815260200190815260200160002060008201518160000160006101000a81548160ff02191690831515021790555060208201518160000160016101000a81548160ff02191690831515021790555090505060026003013390806001815401808255809150509060018203906000526020600020016000909192909190916101000a81548173ffffffffffffffffffffffffffffffffffffffff021916908373ffffffffffffffffffffffffffffffffffffffff160217905550508015610441576002600401600081548092919060010191905055505b61058c565b600760000160009054906101000a900460ff1660ff168260ff16141561058b576040518060400160405280821515815260200160011515815250600760020160003373ffffffffffffffffffffffffffffffffffffffff1673ffffffffffffffffffffffffffffffffffffffff16815260200190815260200160002060008201518160000160006101000a81548160ff02191690831515021790555060208201518160000160016101000a81548160ff02191690831515021790555090505060076003013390806001815401808255809150509060018203906000526020600020016000909192909190916101000a81548173ffffffffffffffffffffffffffffffffffffffff021916908373ffffffffffffffffffffffffffffffffffffffff16021790555050801561058a576007600401600081548092919060010191905055505b5b5b5050565b600c5481565b6060600260000160009054906101000a900460ff1660ff168260ff1614806105d55750600760000160009054906101000a900460ff1660ff168260ff16145b61062a576040517f08c379a00000000000000000000000000000000000000000000000000000000081526004018080602001828103825260268152602001806114a56026913960400191505060405180910390fd5b600260000160009054906101000a900460ff1660ff168260ff1614156106ef5760026001018054600181600116156101000203166002900480601f0160208091040260200160405190810160405280929190818152602001828054600181600116156101000203166002900480156106e35780601f106106b8576101008083540402835291602001916106e3565b820191906000526020600020905b8154815290600101906020018083116106c657829003601f168201915b505050505090506107b5565b600760000160009054906101000a900460ff1660ff168260ff1614156107b45760076001018054600181600116156101000203166002900480601f0160208091040260200160405190810160405280929190818152602001828054600181600116156101000203166002900480156107a85780601f1061077d576101008083540402835291602001916107a8565b820191906000526020600020905b81548152906001019060200180831161078b57829003601f168201915b505050505090506107b5565b5b919050565b60006002800160008373ffffffffffffffffffffffffffffffffffffffff1673ffffffffffffffffffffffffffffffffffffffff16815260200190815260200160002060000160019054906101000a900460ff1661082c57600260000160009054906101000a900460ff1690506108a2565b600760020160008373ffffffffffffffffffffffffffffffffffffffff1673ffffffffffffffffffffffffffffffffffffffff16815260200190815260200160002060000160019054906101000a900460ff1661089d57600760000160009054906101000a900460ff1690506108a2565b600090505b919050565b6000600160028060030180549050600260040154816108c257fe5b0402119050600060016002600760030180549050600760040154816108e357fe5b040211905060006001600280600301805490506002600401548161090357fe5b0402148061092a5750600160026007600301805490506007600401548161092657fe5b0402145b90506000601460026003018054905011801561094e57506014600760030180549050115b90506000828061095c575081155b15610bae576002600e60006101000a81548160ff0219169083600281111561098057fe5b0217905550600090505b600260030180549050811015610a4e57600260030181815481106109aa57fe5b9060005260206000200160009054906101000a900473ffffffffffffffffffffffffffffffffffffffff1673ffffffffffffffffffffffffffffffffffffffff166611c37937e0800060405180600001905060006040518083038185875af1925050503d8060008114610a39576040519150601f19603f3d011682016040523d82523d6000602084013e610a3e565b606091505b505050808060010191505061098a565b600090505b600760030180549050811015610b175760076003018181548110610a7357fe5b9060005260206000200160009054906101000a900473ffffffffffffffffffffffffffffffffffffffff1673ffffffffffffffffffffffffffffffffffffffff166611c37937e0800060405180600001905060006040518083038185875af1925050503d8060008114610b02576040519150601f19603f3d011682016040523d82523d6000602084013e610b07565b606091505b5050508080600101915050610a53565b6000809054906101000a900473ffffffffffffffffffffffffffffffffffffffff1673ffffffffffffffffffffffffffffffffffffffff166611c37937e08000600d540160405180600001905060006040518083038185875af1925050503d8060008114610ba1576040519150601f19603f3d011682016040523d82523d6000602084013e610ba6565b606091505b50505061149d565b831515851515146111bd576000600e60006101000a81548160ff02191690836002811115610bd857fe5b021790555060008090508515610bf75760026004015481019050610c0c565b60026004015460026003018054905003810190505b8415610c215760076004015481019050610c36565b60076004015460076003018054905003810190505b600081600d5481610c4357fe5b049050600092505b600260030180549050831015610e675786151560028001600060026003018681548110610c7457fe5b9060005260206000200160009054906101000a900473ffffffffffffffffffffffffffffffffffffffff1673ffffffffffffffffffffffffffffffffffffffff1673ffffffffffffffffffffffffffffffffffffffff16815260200190815260200160002060000160009054906101000a900460ff1615151415610da05760026003018381548110610d0257fe5b9060005260206000200160009054906101000a900473ffffffffffffffffffffffffffffffffffffffff1673ffffffffffffffffffffffffffffffffffffffff166611c37937e08000820160405180600001905060006040518083038185875af1925050503d8060008114610d93576040519150601f19603f3d011682016040523d82523d6000602084013e610d98565b606091505b505050610e5a565b6611c37937e08000811015610e595760026003018381548110610dbf57fe5b9060005260206000200160009054906101000a900473ffffffffffffffffffffffffffffffffffffffff1673ffffffffffffffffffffffffffffffffffffffff16816611c37937e080000360405180600001905060006040518083038185875af1925050503d8060008114610e50576040519150601f19603f3d011682016040523d82523d6000602084013e610e55565b606091505b5050505b5b8280600101935050610c4b565b600092505b600760030180549050831015611089578515156007600201600060076003018681548110610e9657fe5b9060005260206000200160009054906101000a900473ffffffffffffffffffffffffffffffffffffffff1673ffffffffffffffffffffffffffffffffffffffff1673ffffffffffffffffffffffffffffffffffffffff16815260200190815260200160002060000160009054906101000a900460ff1615151415610fc25760076003018381548110610f2457fe5b9060005260206000200160009054906101000a900473ffffffffffffffffffffffffffffffffffffffff1673ffffffffffffffffffffffffffffffffffffffff166611c37937e08000820160405180600001905060006040518083038185875af1925050503d8060008114610fb5576040519150601f19603f3d011682016040523d82523d6000602084013e610fba565b606091505b50505061107c565b6611c37937e0800081101561107b5760076003018381548110610fe157fe5b9060005260206000200160009054906101000a900473ffffffffffffffffffffffffffffffffffffffff1673ffffffffffffffffffffffffffffffffffffffff16816611c37937e080000360405180600001905060006040518083038185875af1925050503d8060008114611072576040519150601f19603f3d011682016040523d82523d6000602084013e611077565b606091505b5050505b5b8280600101935050610e6c565b6000809054906101000a900473ffffffffffffffffffffffffffffffffffffffff1673ffffffffffffffffffffffffffffffffffffffff166611c37937e0800060405180600001905060006040518083038185875af1925050503d806000811461110f576040519150601f19603f3d011682016040523d82523d6000602084013e611114565b606091505b505050600160009054906101000a900473ffffffffffffffffffffffffffffffffffffffff1673ffffffffffffffffffffffffffffffffffffffff163073ffffffffffffffffffffffffffffffffffffffff163160405180600001905060006040518083038185875af1925050503d80600081146111ae576040519150601f19603f3d011682016040523d82523d6000602084013e6111b3565b606091505b505050505061149c565b6001600e60006101000a81548160ff021916908360028111156111dc57fe5b0217905550600090505b6002600301805490508110156112aa576002600301818154811061120657fe5b9060005260206000200160009054906101000a900473ffffffffffffffffffffffffffffffffffffffff1673ffffffffffffffffffffffffffffffffffffffff166611c37937e0800060405180600001905060006040518083038185875af1925050503d8060008114611295576040519150601f19603f3d011682016040523d82523d6000602084013e61129a565b606091505b50505080806001019150506111e6565b600090505b60076003018054905081101561137357600760030181815481106112cf57fe5b9060005260206000200160009054906101000a900473ffffffffffffffffffffffffffffffffffffffff1673ffffffffffffffffffffffffffffffffffffffff166611c37937e0800060405180600001905060006040518083038185875af1925050503d806000811461135e576040519150601f19603f3d011682016040523d82523d6000602084013e611363565b606091505b50505080806001019150506112af565b6000809054906101000a900473ffffffffffffffffffffffffffffffffffffffff1673ffffffffffffffffffffffffffffffffffffffff16600d5460405180600001905060006040518083038185875af1925050503d80600081146113f4576040519150601f19603f3d011682016040523d82523d6000602084013e6113f9565b606091505b505050600160009054906101000a900473ffffffffffffffffffffffffffffffffffffffff1673ffffffffffffffffffffffffffffffffffffffff163073ffffffffffffffffffffffffffffffffffffffff163160405180600001905060006040518083038185875af1925050503d8060008114611493576040519150601f19603f3d011682016040523d82523d6000602084013e611498565b606091505b5050505b5b505050505056fe54686973206973206e6f7420612076616c69642070726f706f736974696f6e206e756d626572a265627a7a723158205656e3e232de03943ab51356324ed72704a213be3c4d3d8cd2ea38f5d590635564736f6c634300050c0032596f75206e65656420746f2070726f76696465206120626f6e6420616e6420626f756e7479a265627a7a72315820ae1be48404d4af81e68d4dd336327fe78281c8f9f644c3d51dd04035ffd27d4c64736f6c634300050c0032",
  "source": "pragma solidity >=0.4.21 <0.7.0;\n\nimport \"./Submission.sol\";\n\ncontract Hello {\n    Submission[] submissions;\n    Submission[] closedSubs;\n    uint constant bondBounty = 20 finney; //bond=5, minimum bounty=15\n\n    function closeSubmissions() private{\n        uint i = 0;\n        while(i < submissions.length){\n            Submission sub = Submission(submissions[i]);\n            uint close = sub.closeTime();\n\n            if(close * (1 minutes) >= now){\n                sub.closeSubmission();\n                closedSubs.push(submissions[i]);\n                submissions[i] = submissions[submissions.length - 1];\n                delete submissions[submissions.length - 1];\n                submissions.length--;\n                i--;\n  \n            }\n            i++;\n        }\n    }\n\n    function createSubmission(string memory prop1, string memory prop2, uint duration) public payable{\n        closeSubmissions();\n        require(msg.value > bondBounty, \"You need to provide a bond and bounty\");\n        Submission newSubmission = (new Submission).value(msg.value)(prop1, prop2, msg.sender, duration);\n        submissions.push(newSubmission);\n        address(newSubmission).call.value(msg.value)(\"\");\n    } \n\n    function getPropNum() public returns(Submission, uint8) {\n        closeSubmissions();\n        // take bond value??\n        // Using address of user, pick a random proposition they have not yet voted for\n        // Return error if no such proposition exists\n\n        for (uint i = 0; i < submissions.length; i++){\n            uint8 prop = Submission(submissions[i]).getValidPropNum(msg.sender);\n\n            if(prop != 0){\n                return (submissions[i], prop);\n            }\n        }\n        revert(\"No valid proposition exists.\");\n    }\n\n    function() external payable { \n      // fallback function to receive all payments\n    }\n\n}",
  "sourcePath": "/Users/isabellewei/th/contracts/Hello.sol",
  "compiler": {
    "name": "solc",
    "version": "0.5.12+commit.7709ece9.Emscripten.clang"
  },
  "schemaVersion": "3.0.19",
  "updatedAt": "2020-04-27T02:57:15.779Z",
  "devdoc": {
    "methods": {}
  },
  "userdoc": {
    "methods": {}
  }
}