{
  "contractName": "Hello",
  "abi": [
    {
      "constant": false,
      "inputs": [
        {
          "internalType": "string",
          "name": "prop1",
          "type": "string"
        },
        {
          "internalType": "string",
          "name": "prop2",
          "type": "string"
        }
      ],
      "name": "createSubmission",
      "outputs": [],
      "payable": false,
      "stateMutability": "nonpayable",
      "type": "function"
    },
    {
      "constant": true,
      "inputs": [],
      "name": "getPropNum",
      "outputs": [
        {
          "internalType": "contract Submission",
          "name": "",
          "type": "address"
        },
        {
          "internalType": "uint8",
          "name": "",
          "type": "uint8"
        }
      ],
      "payable": false,
      "stateMutability": "view",
      "type": "function"
    }
  ],
  "bytecode": "0x608060405234801561001057600080fd5b5061101f806100206000396000f3fe608060405234801561001057600080fd5b50600436106100365760003560e01c80636053e9e51461003b578063f987e5de1461018d575b600080fd5b61018b6004803603604081101561005157600080fd5b810190808035906020019064010000000081111561006e57600080fd5b82018360208201111561008057600080fd5b803590602001918460018302840111640100000000831117156100a257600080fd5b91908080601f016020809104026020016040519081016040528093929190818152602001838380828437600081840152601f19601f8201169050808301925050505050505091929192908035906020019064010000000081111561010557600080fd5b82018360208201111561011757600080fd5b8035906020019184600183028401116401000000008311171561013957600080fd5b91908080601f016020809104026020016040519081016040528093929190818152602001838380828437600081840152601f19601f8201169050808301925050505050505091929192905050506101e4565b005b61019561038d565b604051808373ffffffffffffffffffffffffffffffffffffffff1673ffffffffffffffffffffffffffffffffffffffff1681526020018260ff1660ff1681526020019250505060405180910390f35b60008282336040516101f590610565565b8080602001806020018473ffffffffffffffffffffffffffffffffffffffff1673ffffffffffffffffffffffffffffffffffffffff168152602001838103835286818151815260200191508051906020019080838360005b8381101561026857808201518184015260208101905061024d565b50505050905090810190601f1680156102955780820380516001836020036101000a031916815260200191505b50838103825285818151815260200191508051906020019080838360005b838110156102ce5780820151818401526020810190506102b3565b50505050905090810190601f1680156102fb5780820380516001836020036101000a031916815260200191505b5095505050505050604051809103906000f08015801561031f573d6000803e3d6000fd5b50905060008190806001815401808255809150509060018203906000526020600020016000909192909190916101000a81548173ffffffffffffffffffffffffffffffffffffffff021916908373ffffffffffffffffffffffffffffffffffffffff16021790555050505050565b60008060008090505b6000805490508110156104f25760008082815481106103b157fe5b9060005260206000200160009054906101000a900473ffffffffffffffffffffffffffffffffffffffff1673ffffffffffffffffffffffffffffffffffffffff1663bc9cdc3a336040518263ffffffff1660e01b8152600401808273ffffffffffffffffffffffffffffffffffffffff1673ffffffffffffffffffffffffffffffffffffffff16815260200191505060206040518083038186803b15801561045857600080fd5b505afa15801561046c573d6000803e3d6000fd5b505050506040513d602081101561048257600080fd5b8101908080519060200190929190505050905060008160ff16146104e457600082815481106104ad57fe5b9060005260206000200160009054906101000a900473ffffffffffffffffffffffffffffffffffffffff1681935093505050610561565b508080600101915050610396565b506040517f08c379a000000000000000000000000000000000000000000000000000000000815260040180806020018281038252601c8152602001807f4e6f2076616c69642070726f706f736974696f6e206578697374732e0000000081525060200191505060405180910390fd5b9091565b610a78806105738339019056fe608060405234801561001057600080fd5b50604051610a78380380610a788339818101604052606081101561003357600080fd5b810190808051604051939291908464010000000082111561005357600080fd5b8382019150602082018581111561006957600080fd5b825186600182028301116401000000008211171561008657600080fd5b8083526020830192505050908051906020019080838360005b838110156100ba57808201518184015260208101905061009f565b50505050905090810190601f1680156100e75780820380516001836020036101000a031916815260200191505b506040526020018051604051939291908464010000000082111561010a57600080fd5b8382019150602082018581111561012057600080fd5b825186600182028301116401000000008211171561013d57600080fd5b8083526020830192505050908051906020019080838360005b83811015610171578082015181840152602081019050610156565b50505050905090810190601f16801561019e5780820380516001836020036101000a031916815260200191505b50604052602001805190602001909291905050506040518060400160405280600160ff16815260200184815250600160008201518160000160006101000a81548160ff021916908360ff160217905550602082015181600101908051906020019061020a9291906102b2565b509050506040518060400160405280600260ff16815260200183815250600460008201518160000160006101000a81548160ff021916908360ff16021790555060208201518160010190805190602001906102669291906102b2565b50905050806000806101000a81548173ffffffffffffffffffffffffffffffffffffffff021916908373ffffffffffffffffffffffffffffffffffffffff160217905550505050610357565b828054600181600116156101000203166002900490600052602060002090601f016020900481019282601f106102f357805160ff1916838001178555610321565b82800160010185558215610321579182015b82811115610320578251825591602001919060010190610305565b5b50905061032e9190610332565b5090565b61035491905b80821115610350576000816000905550600101610338565b5090565b90565b610712806103666000396000f3fe608060405234801561001057600080fd5b50600436106100415760003560e01c80632808241e146100465780638d9dbc1414610083578063bc9cdc3a1461012d575b600080fd5b6100816004803603604081101561005c57600080fd5b81019080803560ff16906020019092919080351515906020019092919050505061018b565b005b6100b26004803603602081101561009957600080fd5b81019080803560ff1690602001909291905050506103a6565b6040518080602001828103825283818151815260200191508051906020019080838360005b838110156100f25780820151818401526020810190506100d7565b50505050905090810190601f16801561011f5780820380516001836020036101000a031916815260200191505b509250505060405180910390f35b61016f6004803603602081101561014357600080fd5b81019080803573ffffffffffffffffffffffffffffffffffffffff1690602001909291905050506105c9565b604051808260ff1660ff16815260200191505060405180910390f35b600160000160009054906101000a900460ff1660ff168260ff1614806101c85750600460000160009054906101000a900460ff1660ff168260ff16145b61021d576040517f08c379a00000000000000000000000000000000000000000000000000000000081526004018080602001828103825260268152602001806106b86026913960400191505060405180910390fd5b600160000160009054906101000a900460ff1660ff168260ff1614156102e1576040518060400160405280821515815260200160011515815250600160020160003373ffffffffffffffffffffffffffffffffffffffff1673ffffffffffffffffffffffffffffffffffffffff16815260200190815260200160002060008201518160000160006101000a81548160ff02191690831515021790555060208201518160000160016101000a81548160ff0219169083151502179055509050506103a2565b600460000160009054906101000a900460ff1660ff168260ff1614156103a1576040518060400160405280821515815260200160011515815250600460020160003373ffffffffffffffffffffffffffffffffffffffff1673ffffffffffffffffffffffffffffffffffffffff16815260200190815260200160002060008201518160000160006101000a81548160ff02191690831515021790555060208201518160000160016101000a81548160ff0219169083151502179055509050505b5b5050565b6060600160000160009054906101000a900460ff1660ff168260ff1614806103e55750600460000160009054906101000a900460ff1660ff168260ff16145b61043a576040517f08c379a00000000000000000000000000000000000000000000000000000000081526004018080602001828103825260268152602001806106b86026913960400191505060405180910390fd5b600160000160009054906101000a900460ff1660ff168260ff1614156104fe57600180018054600181600116156101000203166002900480601f0160208091040260200160405190810160405280929190818152602001828054600181600116156101000203166002900480156104f25780601f106104c7576101008083540402835291602001916104f2565b820191906000526020600020905b8154815290600101906020018083116104d557829003601f168201915b505050505090506105c4565b600460000160009054906101000a900460ff1660ff168260ff1614156105c35760046001018054600181600116156101000203166002900480601f0160208091040260200160405190810160405280929190818152602001828054600181600116156101000203166002900480156105b75780601f1061058c576101008083540402835291602001916105b7565b820191906000526020600020905b81548152906001019060200180831161059a57829003601f168201915b505050505090506105c4565b5b919050565b6000600160020160008373ffffffffffffffffffffffffffffffffffffffff1673ffffffffffffffffffffffffffffffffffffffff16815260200190815260200160002060000160019054906101000a900460ff1661063c57600160000160009054906101000a900460ff1690506106b2565b600460020160008373ffffffffffffffffffffffffffffffffffffffff1673ffffffffffffffffffffffffffffffffffffffff16815260200190815260200160002060000160019054906101000a900460ff166106ad57600460000160009054906101000a900460ff1690506106b2565b600090505b91905056fe54686973206973206e6f7420612076616c69642070726f706f736974696f6e206e756d626572a265627a7a72315820793f5b73f7b812fc7d6aa3750cc9ad36e89ae1ed6c27937b85523cbbe91f3b8a64736f6c634300050c0032a265627a7a723158207d985c461b4242f07feea119c9317fd2d0f94a245b2100f66e61e06b2a2d14a564736f6c634300050c0032",
  "source": "pragma solidity >=0.4.21 <0.7.0;\n\nimport \"./Submission.sol\";\n\ncontract Hello {\n    Submission[] submissions;\n\n    function createSubmission(string memory prop1, string memory prop2) public{\n        Submission newSubmission = new Submission(prop1, prop2, msg.sender);\n        submissions.push(newSubmission);\n    } \n\n    // function getGreeting() public view returns(string memory) {\n    //     return greeting;\n    // }\n\n    // function setGreeting(string memory _greeting) public {\n    //     greeting = _greeting;\n    // }\n\n    function getPropNum() public view returns(Submission, uint8) {\n        // take bond value??\n        // Using address of user, pick a random proposition they have not yet voted for\n        // Return error if no such proposition exists\n\n        for (uint i = 0; i < submissions.length; i++){\n            uint8 prop = Submission(submissions[i]).getValidPropNum(msg.sender);\n\n            if(prop != 0){\n                return (submissions[i], prop);\n            }\n        }\n        revert(\"No valid proposition exists.\");\n        // return Submission(submissions[submissions.length-1]).prop1;\n    }\n\n}",
  "sourcePath": "/Users/isabellewei/th/contracts/Hello.sol",
  "compiler": {
    "name": "solc",
    "version": "0.5.12+commit.7709ece9.Emscripten.clang"
  },
  "schemaVersion": "3.0.19",
  "updatedAt": "2020-02-28T00:30:05.988Z",
  "devdoc": {
    "methods": {}
  },
  "userdoc": {
    "methods": {}
  }
}