{
  "contractName": "Submission",
  "abi": [
    {
      "inputs": [
        {
          "internalType": "string",
          "name": "_prop1",
          "type": "string"
        },
        {
          "internalType": "string",
          "name": "_prop2",
          "type": "string"
        },
        {
          "internalType": "address",
          "name": "_submitter",
          "type": "address"
        }
      ],
      "payable": false,
      "stateMutability": "nonpayable",
      "type": "constructor"
    },
    {
      "constant": true,
      "inputs": [
        {
          "internalType": "address",
          "name": "voter",
          "type": "address"
        }
      ],
      "name": "getValidPropNum",
      "outputs": [
        {
          "internalType": "uint8",
          "name": "",
          "type": "uint8"
        }
      ],
      "payable": false,
      "stateMutability": "view",
      "type": "function"
    },
    {
      "constant": true,
      "inputs": [
        {
          "internalType": "uint8",
          "name": "prop",
          "type": "uint8"
        }
      ],
      "name": "getProp",
      "outputs": [
        {
          "internalType": "string",
          "name": "",
          "type": "string"
        }
      ],
      "payable": false,
      "stateMutability": "view",
      "type": "function"
    },
    {
      "constant": false,
      "inputs": [
        {
          "internalType": "uint8",
          "name": "prop",
          "type": "uint8"
        },
        {
          "internalType": "bool",
          "name": "ans",
          "type": "bool"
        }
      ],
      "name": "vote",
      "outputs": [],
      "payable": false,
      "stateMutability": "nonpayable",
      "type": "function"
    }
  ],
  "bytecode": "0x608060405234801561001057600080fd5b50604051610a78380380610a788339818101604052606081101561003357600080fd5b810190808051604051939291908464010000000082111561005357600080fd5b8382019150602082018581111561006957600080fd5b825186600182028301116401000000008211171561008657600080fd5b8083526020830192505050908051906020019080838360005b838110156100ba57808201518184015260208101905061009f565b50505050905090810190601f1680156100e75780820380516001836020036101000a031916815260200191505b506040526020018051604051939291908464010000000082111561010a57600080fd5b8382019150602082018581111561012057600080fd5b825186600182028301116401000000008211171561013d57600080fd5b8083526020830192505050908051906020019080838360005b83811015610171578082015181840152602081019050610156565b50505050905090810190601f16801561019e5780820380516001836020036101000a031916815260200191505b50604052602001805190602001909291905050506040518060400160405280600160ff16815260200184815250600160008201518160000160006101000a81548160ff021916908360ff160217905550602082015181600101908051906020019061020a9291906102b2565b509050506040518060400160405280600260ff16815260200183815250600460008201518160000160006101000a81548160ff021916908360ff16021790555060208201518160010190805190602001906102669291906102b2565b50905050806000806101000a81548173ffffffffffffffffffffffffffffffffffffffff021916908373ffffffffffffffffffffffffffffffffffffffff160217905550505050610357565b828054600181600116156101000203166002900490600052602060002090601f016020900481019282601f106102f357805160ff1916838001178555610321565b82800160010185558215610321579182015b82811115610320578251825591602001919060010190610305565b5b50905061032e9190610332565b5090565b61035491905b80821115610350576000816000905550600101610338565b5090565b90565b610712806103666000396000f3fe608060405234801561001057600080fd5b50600436106100415760003560e01c80632808241e146100465780638d9dbc1414610083578063bc9cdc3a1461012d575b600080fd5b6100816004803603604081101561005c57600080fd5b81019080803560ff16906020019092919080351515906020019092919050505061018b565b005b6100b26004803603602081101561009957600080fd5b81019080803560ff1690602001909291905050506103a6565b6040518080602001828103825283818151815260200191508051906020019080838360005b838110156100f25780820151818401526020810190506100d7565b50505050905090810190601f16801561011f5780820380516001836020036101000a031916815260200191505b509250505060405180910390f35b61016f6004803603602081101561014357600080fd5b81019080803573ffffffffffffffffffffffffffffffffffffffff1690602001909291905050506105c9565b604051808260ff1660ff16815260200191505060405180910390f35b600160000160009054906101000a900460ff1660ff168260ff1614806101c85750600460000160009054906101000a900460ff1660ff168260ff16145b61021d576040517f08c379a00000000000000000000000000000000000000000000000000000000081526004018080602001828103825260268152602001806106b86026913960400191505060405180910390fd5b600160000160009054906101000a900460ff1660ff168260ff1614156102e1576040518060400160405280821515815260200160011515815250600160020160003373ffffffffffffffffffffffffffffffffffffffff1673ffffffffffffffffffffffffffffffffffffffff16815260200190815260200160002060008201518160000160006101000a81548160ff02191690831515021790555060208201518160000160016101000a81548160ff0219169083151502179055509050506103a2565b600460000160009054906101000a900460ff1660ff168260ff1614156103a1576040518060400160405280821515815260200160011515815250600460020160003373ffffffffffffffffffffffffffffffffffffffff1673ffffffffffffffffffffffffffffffffffffffff16815260200190815260200160002060008201518160000160006101000a81548160ff02191690831515021790555060208201518160000160016101000a81548160ff0219169083151502179055509050505b5b5050565b6060600160000160009054906101000a900460ff1660ff168260ff1614806103e55750600460000160009054906101000a900460ff1660ff168260ff16145b61043a576040517f08c379a00000000000000000000000000000000000000000000000000000000081526004018080602001828103825260268152602001806106b86026913960400191505060405180910390fd5b600160000160009054906101000a900460ff1660ff168260ff1614156104fe57600180018054600181600116156101000203166002900480601f0160208091040260200160405190810160405280929190818152602001828054600181600116156101000203166002900480156104f25780601f106104c7576101008083540402835291602001916104f2565b820191906000526020600020905b8154815290600101906020018083116104d557829003601f168201915b505050505090506105c4565b600460000160009054906101000a900460ff1660ff168260ff1614156105c35760046001018054600181600116156101000203166002900480601f0160208091040260200160405190810160405280929190818152602001828054600181600116156101000203166002900480156105b75780601f1061058c576101008083540402835291602001916105b7565b820191906000526020600020905b81548152906001019060200180831161059a57829003601f168201915b505050505090506105c4565b5b919050565b6000600160020160008373ffffffffffffffffffffffffffffffffffffffff1673ffffffffffffffffffffffffffffffffffffffff16815260200190815260200160002060000160019054906101000a900460ff1661063c57600160000160009054906101000a900460ff1690506106b2565b600460020160008373ffffffffffffffffffffffffffffffffffffffff1673ffffffffffffffffffffffffffffffffffffffff16815260200190815260200160002060000160019054906101000a900460ff166106ad57600460000160009054906101000a900460ff1690506106b2565b600090505b91905056fe54686973206973206e6f7420612076616c69642070726f706f736974696f6e206e756d626572a265627a7a72315820793f5b73f7b812fc7d6aa3750cc9ad36e89ae1ed6c27937b85523cbbe91f3b8a64736f6c634300050c0032",
  "source": "pragma solidity >=0.4.21 <0.7.0;\n\ncontract Submission {\n    address submitter;\n    struct Vote {\n        bool vote;\n        bool exists;\n    }\n    struct Proposition {\n        uint8 num;\n        string question;\n        mapping(address => Vote) votes;\n    }\n    Proposition prop1;\n    Proposition prop2;\n    \n    // mapping(address => Vote) prop1Votes;\n    // mapping(address => Vote) prop2Votes;\n\n    constructor(string memory _prop1, string memory _prop2, address _submitter) public{\n        // Do not set the proposition numbers to be 0 or to be the same\n        prop1 = Proposition(1, _prop1);\n        prop2 = Proposition(2, _prop2);\n        submitter = _submitter;\n\t\t// TODO: Take bond +bounty out of submitter’s account\n    }\n\n    function getValidPropNum(address voter) public view returns(uint8){\n        if(!prop1.votes[voter].exists){\n            return prop1.num;\n        } else if(!prop2.votes[voter].exists){\n            return prop2.num;\n        } else{\n            return 0;\n        }\n    }\n\n    function getProp(uint8 prop) public view returns(string memory){\n        require(prop==prop1.num || prop == prop2.num, \"This is not a valid proposition number\");\n        if(prop == prop1.num){\n            return prop1.question;\n        } else if(prop == prop2.num){\n            return prop2.question;\n        }\n    }\n\n    function vote(uint8 prop, bool ans) public{\n        require(prop==prop1.num || prop == prop2.num, \"This is not a valid proposition number\");\n        \n        if(prop == prop1.num){\n            prop1.votes[msg.sender] = Vote(ans, true);\n        } else if(prop == prop2.num){\n            prop2.votes[msg.sender] = Vote(ans, true);\n        }\n        // take bond out of voter account\n    }\n\n    // Async function closeSubmission(){\n    //     Use a scheduler so that the smart contract proactively executes this \n    //     event at the end of the duration\n\n    //     require(converged answers of prop1 and prop2 are opposite)\n    //     require(enough votes for both propositions)\n\n    //     Return bond to submitter if requirements are met\n    //     Reward voters in agreement and penalize voters in disagreement with majority\n    //     Send results of submission to web app to be saved for the Submission History\n    //     Remove this submission from list of active submissions\n    // }\n\n}",
  "sourcePath": "/Users/isabellewei/th/contracts/Submission.sol",
  "compiler": {
    "name": "solc",
    "version": "0.5.12+commit.7709ece9.Emscripten.clang"
  },
  "schemaVersion": "3.0.19",
  "updatedAt": "2020-02-28T00:05:21.150Z",
  "devdoc": {
    "methods": {}
  },
  "userdoc": {
    "methods": {}
  }
}